:020000040800F2
:10000000F006002099010008990E0008CD0D0008A7
:10001000250E0008B9080008C31C000800000000F5
:10002000000000000000000000000000B5140008FF
:10003000210C00080000000065130008511800089A
:10004000B3010008B3010008B3010008B3010008C0
:10005000B3010008B3010008B3010008B3010008B0
:10006000B3010008B3010008B3010008B3010008A0
:10007000B3010008B3010008B3010008B301000890
:10008000B3010008B3010008B3010008B301000880
:10009000B3010008B3010008B3010008B301000870
:1000A000B3010008B3010008B3010008B301000860
:1000B000B3010008B3010008B3010008B301000850
:1000C000B3010008B3010008B3010008B301000840
:1000D000B3010008351A0008B3010008B301000895
:1000E000B3010008B3010008B301000800F002F8F2
:1000F00000F043F80AA090E8000C82448344AAF17F
:100100000107DA4501D100F038F8AFF2090EBAE87C
:100110000F0013F0010F18BFFB1A43F0010318473B
:100120004422000064220000103A24BF78C878C13D
:10013000FAD8520724BF30C830C144BF04680C60ED
:10014000704700000023002400250026103A28BF35
:1001500078C1FBD8520728BF30C148BF0B60704739
:100160001FB500F091F904000020002101F0ECFD22
:10017000401C60601FBD10B510BD00F060F9114655
:10018000FFF7EEFF01F0A0FD00F090F903B4FFF7D8
:10019000F2FF03BC00F094F9094880470948004782
:1001A000FEE7FEE7FEE7FEE7FEE7FEE7FEE7FEE727
:1001B000FEE7FEE704480549054A064B7047000084
:1001C00055180008ED000008F0000020F00600209F
:1001D000F0020020F002002070B5064600F098F80A
:1001E0000468054630460A22002100F095F82C608C
:1001F00070BD40EA010370B59B072ED14FF0013668
:10020000042A2AD308C810C99D1B9D43121F15EA52
:10021000C61517D0D8B2E1B2401A50EA056110D124
:1002200098B2A1B2401A50EA05410AD123F07F40AA
:1002300024F07F41401A50EA052102D1180EA0EBAC
:10024000146070BDA342DBD018BA21BA884201D92C
:10025000012070BD4FF0FF3070BD0AB9002070BDA5
:1002600010F8013B11F8014B63B1A3420AD1521EB1
:1002700008D010F8013B11F8014B1BB1A34201D18A
:10028000521EEDD1181B70BD4FF0013C50F8042BED
:1002900051F8043B9A4221D1A2EB0C03934313EA99
:1002A000CC1317D150F8042B51F8043B9A4215D1C6
:1002B000A2EB0C03934313EACC130BD150F8042B9D
:1002C00051F8043B9A4209D1A2EB0C03934313EA81
:1002D000CC13DBD04FF00000704700BFD01A01BA3A
:1002E000B1FA81F101F0180122FA01F0CB40C1F11D
:1002F0002001DBB2C0B2C01A2CFA01F3D11A91432B
:1003000011EAC311E6D1704770477047704700008B
:1003100000487047900000202DE9F04791460F46B5
:1003200080460446002614F8015B2DB100F030F839
:100330000068405DC007F6D12B2D02D02D2D18D0BE
:10034000641E4A463946204600F02AF827B139682B
:10035000A14201D1C7F800804FF0020471050BD50E
:100360004042002803DDFFF7D3FF0460A007BDE88B
:10037000F08746F48066E4E70028F8DAFFF7C8FF64
:1003800004606FF00040F2E70048704790000020E2
:1003900010B500F079F8001D10BD00BFAD190000C8
:1003A0002DE9F05F824615468B4600270AF10104CD
:1003B000B9460078302801D09DB113E014F8010B44
:1003C0000127782803D0582801D045B10AE00DB1A3
:1003D000102D07D1002714F8010B102502E0082585
:1003E00000E00A250026B0460EE005FB080005FBEC
:1003F00006F101271FFA80F801EB1046B6F5803FA1
:1004000000D3B94614F8010B294600F041F8002842
:10041000EBDABBF1000F05D00FB1641E00E05446CB
:10042000CBF80040B9F1000F06D0FFF771FF0221B1
:100430000160C81EBDE8F09F48EA0640FAE775462D
:10044000FFF7A2FFAE4605006946534620F00700BD
:10045000854618B020B5FFF7ADFEBDE820404FF04F
:1004600000064FF000074FF000084FF0000B21F09E
:100470000701AC46ACE8C009ACE8C009ACE8C0096B
:10048000ACE8C0098D46704700487047B0000020B6
:100490003A2800D2303820F02002412A01D3A2F1BC
:1004A0003700884201D34FF0FF30704710B5044643
:1004B000AFF300802046BDE81040FFF767BE0000A4
:1004C00001491820ABBEFEE726000200704721B1AB
:1004D000826842F00102826003E0826822F0010239
:1004E0008260704721B1826842F48072826003E0CA
:1004F000826822F480728260704770B504460026DC
:1005000004B90124002507E000F0C4F806440120E6
:1005100000F087FB681CC5B2A542F5DBB6FBF4F022
:1005200080B270BD014600208A6802F004020AB160
:10053000012000E000207047014600208A6802F098
:1005400008020AB1012000E00020704730B50246E1
:100550000020002350680F4C20400D790C6844EABD
:1005600005242043506090680B4C2040D1E9025490
:100570002C434D7944EA450420439060D06A20F42E
:1005800070000C7C641EE4B2234340EA0350D06246
:1005900030BD0000FFFEF0FFFDF7F1FFF0B50446AF
:1005A0000D4600200021092D11DDE068A5F10A06A5
:1005B00006EB4607072606FA07F18843A5F10A0667
:1005C00006EB460603FA06F10843E0600CE02069FA
:1005D00005EB4507072606FA07F1884305EB4506B4
:1005E00003FA06F108432061072A0FDA606B561EF2
:1005F00006EB86071F2606FA07F18843561E06EB10
:10060000860605FA06F10843606322E00D2A0FDA38
:10061000206BD61F06EB86071F2606FA07F18843D4
:10062000D61F06EB860605FA06F10843206310E0A4
:10063000E06AA2F10D0606EB86071F2606FA07F10F
:100640008843A2F10D0606EB860605FA06F108437B
:10065000E062F0BD816841F008018160704721B11E
:10066000826842F4A002826003E0826822F4A00261
:1006700082607047816841F00401816070470146E3
:1006800040F6E440484340F6FF72B0FBF2F080B21F
:100690007047000010B500210E4800F07FFA0121DC
:1006A0000C4800F0BBFA022000F06AFA0121094868
:1006B00000F074FA01210848FFF7D1FF00BF0220C3
:1006C00000F078FA0028FAD0022000F059FA034826
:1006D000008810BD080002400024014022000020D4
:1006E00000B591B00121480200F06AFE0121082006
:1006F00000F066FE0121084600F042FE4FF4004083
:1007000000F032FE00208DF843000120ADF84000DB
:1007100003208DF8420010A92B4800F0C3FA0523EE
:10072000012208212948FFF739FF00208DF8310008
:100730000E904FF460200D9000200B9001208DF85A
:100740003C0000208DF830000BA92048FFF7FEFE8A
:1007500001200390002002900A901D4801904FF460
:1007600080600790802005900020089017484C304A
:10077000009080150690002004904FF4805009905E
:100780006946144800F02CFA0121124800F006FADC
:1007900001210E48FFF7A6FE01210C48FFF797FE46
:1007A0000A48FFF757FF00BF0848FFF7C5FE0128BA
:1007B000FAD00648FFF75EFF00BF0448FFF7B2FE1D
:1007C0000128FAD011B000BD000C01400024014006
:1007D000220000200800024010B52B4800780128B4
:1007E00004D12A4800782A49087016E02848007881
:1007F00048B9284800882849098888420DDD012029
:100800002349087009E023480088323022490988CA
:10081000884202DA00201E4908701D48007838B36B
:100820001E48007808B9012000E000201B4908702C
:100830000846007820B100F0EDFA00F05DF803E022
:1008400000F0E0FA00F050F8154890F9000000F0D0
:1008500003FB144801780078401C124A10701429D8
:1008600010DB0020114608700FA000F059FF09E0CE
:1008700000F0C8FA00F038F8002000F0EDFA00208F
:100880000849087010BD00001B0000201C0000205B
:100890001A00002016000020180000201E00002072
:1008A0001D0000201F000020245741524E3D414CA6
:1008B00041524D0D0A00000000BFFEE708B50121BE
:1008C000042000F07DFD10208DF803008020ADF89D
:1008D000000003208DF802006946024800F0E2F9AA
:1008E00008BD00000008014010B58021014800F05B
:1008F00064FA10BD0008014010B58021014800F0E5
:100900005EFA10BD0008014070B504464DA12046B6
:10091000FFF7BAFC10B900F095FE90E04BA120461D
:10092000FFF7B2FC18B94CA000F0FAFE87E00322F2
:100930004EA12046FFF75DFC002831D1E01C00F0FD
:1009400071FF18B94AA000F0EBFE70BDE01CFFF784
:1009500043FC85B240F6E44085421DDC49480580F1
:1009600000204949087049490870494800884549AC
:100970000988884201DD012000E000204549087017
:1009800045A000F0CDFE04213E48008800F02AFE7C
:1009900043A000F0C5FE02E042A000F0C1FE4EE020
:1009A00044A12046FFF770FC40B901203649087089
:1009B0003649087042A000F0B3FE40E044A1204652
:1009C000FFF762FC48B901202F49087000202F4929
:1009D000087042A000F0A4FE31E044A12046FFF7D9
:1009E00053FC30B900202849087043A000F098FE5D
:1009F00025E0062245A12046FFF7FBFBE0B9A01D3C
:100A0000FFF7EAFB054615F1640F11DB642D0FDCDF
:100A100068B24049087040A000F082FE03213D48C2
:100A200090F9000000F0FBFD1DA000F079FE02E04F
:100A30003CA000F075FE02E03FA000F071FE00BF98
:100A400083E700005354415455533F0056455253D9
:100A5000494F4E3F000000002456455253494F4E27
:100A60003D312E302E300D0A0000000054483D006C
:100A7000244552523D54485F464F524D41540D0A51
:100A800000000000180000201B0000201C000020B7
:100A9000160000201A000020244F4B2C54483D0023
:100AA0000D0A0000244552523D54485F52414E47C2
:100AB000450D0A00414C41524D3D4F4E0000000093
:100AC000244F4B2C414C41524D3D4F4E0D0A0000DE
:100AD000414C41524D3D4F4646000000244F4B2CA7
:100AE000414C41524D3D4F46460D0A00414C41524A
:100AF0004D3D4155544F0000244F4B2C414C415229
:100B00004D3D4155544F0D0A000000004D4F544FCC
:100B1000523D00001D000020244F4B2C4D4F544FE0
:100B2000523D0000244552523D4D4F544F525F52AA
:100B3000414E47450D0A0000244552523D554E4B4B
:100B40004E4F574E5F434D440D0A000010B500F064
:100B5000C5FC10B10848FFF7D7FE084801780078B7
:100B6000401C064A1070142904DB0020114608704E
:100B700000F068FD10BD00002C00002020000020C7
:100B800000F0805111B10349086001E0024948605A
:100B900070470000040402400000024021B10268D6
:100BA00042F00102026004E002684FF6FE731A4050
:100BB0000260704701460020002201F0805313B10B
:100BC000054B1A6801E0054B1A6802EA01030BB1F4
:100BD000012000E0002070470004024000000240B5
:100BE00010B50022026847F6F0739A430C6A8B68CE
:100BF00023430C6923434C6923438C692343CC6909
:100C000023434C6A23438C6A23431A430260CB6814
:100C100043600B6883604B68C36010BD41607047E0
:100C2000704700B5034603E04FF47A7000F005F812
:100C3000181EA3F10103F7D100BD00EBC001C900EC
:100C40004FF0E0225161002191610521116100BF47
:100C50004FF0E021096901F480310029F8D0042126
:100C60004FF0E0221161704710B504230A48028852
:100C70000521012000F09AFA042308480288194649
:100C8000022000F093FA0323054890F90020072181
:100C9000184600F0ADFA10BD140000201600002028
:100CA0001D0000202DE9F04102460025002600200D
:100CB00000230024002791F803C00CF00F0591F8E1
:100CC00003C00CF0100CBCF1000F03D091F802C06F
:100CD0004CEA050591F800C0BCF1000F31D0146852
:100CE00000202BE04FF0010C0CFA00F3B1F800C02B
:100CF0000CEA03069E4220D183004FF00F0C0CFA41
:100D000003F7BC4305FA03FC4CEA040491F803C062
:100D1000BCF1280F06D14FF0010C0CFA00FCC2F810
:100D200014C00AE091F803C0BCF1480F05D14FF0A0
:100D3000010C0CFA00FCC2F810C0401C0828D1D3EA
:100D40001460B1F800C0BCF1FF0F34DD546800201E
:100D50002EE000F1080C4FF0010808FA0CF3B1F88E
:100D600000C00CEA03069E4221D183004FF00F0C15
:100D70000CFA03F7BC4305FA03FC4CEA040491F8AF
:100D800003C0BCF1280F05D100F1080C08FA0CF8DB
:100D9000C2F8148091F803C0BCF1480F07D100F1EC
:100DA000080C4FF0010808FA0CF8C2F81080401C3B
:100DB0000828CED35460BDE8F081416170470161DD
:100DC00070470AB1016100E04161704700BFFEE772
:100DD00008B50121042000F0F3FA10208DF803007B
:100DE0000820ADF8000003208DF802006946044891
:100DF000FFF758FF08210248FFF7E1FF08BD000098
:100E00000008014010B508210148FFF7D8FF10BDC8
:100E10000008014010B508210148FFF7CEFF10BDC2
:100E20000008014000BFFEE708B50121042000F0E2
:100E3000C7FA10208DF803003020ADF80000032021
:100E40008DF8020069460348FFF72CFF00F038FADE
:100E500008BD00000008014010B50446002C0BDB63
:100E600010210C48FFF7ABFF20210A48FFF7A5FF30
:100E7000A0B200F06FFA0BE020210648FFF79FFFB9
:100E800010210448FFF799FF614288B200F062FA2E
:100E900010BD0000000801407047000070B500213F
:100EA00000230F22C47804B3154C246804F4E064D2
:100EB000C4F5E064210AC1F10403CA40447804FA8D
:100EC00003F184781440214309010E4C0678A155A2
:100ED000047804F01F050124AC4005786D11AD00C5
:100EE00005F1E025C5F8004109E0047804F01F058C
:100EF0000124AC40044D0678761145F8264070BDBB
:100F00000CED00E000E400E080E100E00249014374
:100F1000024A1160704700000000FA050CED00E085
:100F200070B500240EE00021204600F0F4F8002502
:100F300004E0002000F0B3F9681CC5B2802DF8DB96
:100F4000601CC4B2082CEEDB70BD000008B50121A6
:100F5000082000F035FA14208DF8030003208DF8E6
:100F600002004FF48070ADF8000069460A48FFF7B0
:100F700099FE4FF40070ADF8000069460648FFF78F
:100F800091FE012211020448FFF71BFF01225102CA
:100F90000148FFF716FF08BD000C014070B505467B
:100FA000002419E080202041284008B1012000E001
:100FB000002002464FF400710E48FFF702FF0122A5
:100FC00011020C48FFF7FDFE00224FF48071094822
:100FD000FFF7F7FE601CC4B2082CE3DB012211020C
:100FE0000448FFF7EEFE00224FF480710148FFF73E
:100FF000E8FE70BD000C014010B5012251020A4804
:10100000FFF7DFFE012211020748FFF7DAFE002298
:101010004FF400710448FFF7D4FE00224FF48071B2
:101020000148FFF7CEFE10BD000C014010B50022B4
:101030004FF400710648FFF7C4FE01221102044874
:10104000FFF7BFFE012251020148FFF7BAFE10BDB3
:10105000000C014070B5002406E0002500E06D1C86
:10106000B5F57A7FFBD3641CB4F57A7FF5D3FFF72F
:101070006DFFAE2000F003F9D52000F000F98020CC
:1010800000F0FDF8A82000F0FAF83F2000F0F7F893
:10109000D32000F0F4F8002000F0F1F8402000F038
:1010A000EEF8A12000F0EBF8C82000F0E8F8DA2014
:1010B00000F0E5F8122000F0E2F8812000F0DFF8FF
:1010C000CF2000F0DCF8D92000F0D9F8F12000F0B2
:1010D000D6F8DB2000F0D3F8302000F0D0F8A420C0
:1010E00000F0CDF8A62000F0CAF88D2000F0C7F877
:1010F000142000F0C4F8AF2000F0C1F8FFF710FF93
:1011000070BD10B50246012000E050430B1EA1F156
:101110000101FAD110BD70B505460C4645F0B0008E
:1011200000F0ADF8102141EA141000F0A8F804F026
:101130000F0000F0A4F870BD2DE9F04105460E4601
:101140001746721ED206110E6A1E5206100EFFF7C7
:10115000E2FF002409E0A7F12001134A02EB01118C
:10116000085D00F09CF8601CC4B2082CF3DB721E12
:10117000D206110E6A1E012303EB4202D0B2FFF722
:10118000CAFF00240BE0A7F12001074A02EB01127D
:1011900004F10801505C00F082F8601CC4B2082C15
:1011A000F1DBBDE8F0810000741D00082DE9F04777
:1011B00080460E4617461D46002415E0281B411E9A
:1011C0000A20FFF79EFFB7FBF0F00A21B0FBF1F217
:1011D00001FB120000F130093019C1B24A46404605
:1011E000FFF7AAFF601CC4B2AC42E7DBBDE8F087A2
:1011F0002DE9F0478146884615461E46002D06DB40
:101200002B2241464846FFF797FF2F4605E02D2247
:1012100041464846FFF790FF6F42002417E0301B1D
:10122000411E0A20FFF76DFFB7FBF0F00A21B0FB6B
:10123000F1F201FB120000F1300A08EB0400401C3F
:10124000C1B252464846FFF777FF601CC4B2B442B1
:10125000E5DBBDE8F0872DE9F04107460E4615466F
:10126000002407E02A5D3019C1B23846FFF764FF59
:10127000601CC4B2285D0028F4D1BDE8F08110B52F
:101280000446FFF7B9FE7820FFF788FE0020FFF73D
:1012900085FE2046FFF782FEFFF7C8FE10BD10B5A1
:1012A0000446FFF7A9FE7820FFF778FE4020FFF7FD
:1012B00075FE2046FFF772FEFFF7B8FE10BD000076
:1012C00000B589B00121084600F06AF80121042028
:1012D00000F076F818208DF823000420ADF82000E7
:1012E00003208DF8220008A91948FFF7DBFC4FF016
:1012F000804000F0EBFA0020ADF81A00ADF81600BF
:101300006320ADF818002320ADF8140000208DF8FC
:101310001C0005A94FF0804000F03AFB01A800F046
:101320002BFB6020ADF804000020ADF80C0001207C
:10133000ADF806000020ADF80A0001A94FF080408A
:1013400000F0CAFA0121880700F0B4FA09B000BD24
:101350000008014010B5044621464FF0804000F0DF
:1013600015FB10BD7047000001460020034A50687D
:1013700020F44040084350607047000000100240D5
:1013800029B1064A52690243044B5A6104E0034AF8
:1013900052698243014B5A617047000000100240BD
:1013A00029B1064AD2690243044BDA6104E0034AD8
:1013B000D2698243014BDA6170470000001002409D
:1013C00029B1064A92690243044B9A6104E0034A38
:1013D00092698243014B9A617047000000100240FD
:1013E00030B500210022002400232D4D6D6805F04A
:1013F0000C0121B1042905D0082923D105E0294D8C
:10140000056022E0274D05601FE0254D6D6805F45D
:101410007012234D6D6805F48034022505EB92426D
:101420001CB9214D554305600BE01D4D6D6805F459
:1014300000351DB11C4D5543056002E0194D554363
:10144000056002E0174D056000BF00BF144D6D68D8
:1014500005F0F0010909154D6B5C0568DD4045603C
:101460000F4D6D6805F4E061090A104D6B5C45682D
:10147000DD4085600A4D6D6805F46051C90A0B4D69
:101480006B5C4568DD40C560054D6D6805F4404105
:10149000890B074D6B5CC568B5FBF3F5056130BD85
:1014A0000010024000127A0000093D0000000020F8
:1014B000100000207047000010B50820FFF71DF84D
:1014C0000449088008460088FFF7D9F802490880D7
:1014D00010BD000014000020160000200548007810
:1014E000012804D100200349087001207047002022
:1014F000FCE700002600002000B587B00121042091
:10150000FFF75EFF01218803FFF75AFF18208DF8CF
:101510001B004FF40070ADF8180003208DF81A007E
:1015200006A92148FFF7BEFB48208DF81B004FF4A9
:101530008060ADF8180003208DF81A0006A91A483B
:10154000FFF7B0FB4FF4165002900020ADF81400E6
:101550000C20ADF812000020ADF81000ADF80E0020
:10156000ADF80C0002A9114800F036FB012240F250
:1015700025510E4800F00AFB4FF4A060FFF7C6FCAF
:1015800025208DF8040001208DF807008DF8050056
:101590008DF8060001A8FFF781FC0121034800F047
:1015A000B2FA07B000BD0000000801400038014059
:1015B00010B50246012000E050430B1EA1F10101CD
:1015C000FAD110BD10B504462146054800F075FB60
:1015D00000BF8021024800F0A2FA0028F9D010BD17
:1015E000003801402DE9F04106460C46002512E086
:1015F000601B411E0A20FFF7DBFFB6FBF0F00A215B
:10160000B0FBF1F201FB120000F130073846FFF7A2
:10161000D9FF681CC5B2A542EADBBDE8F08170B510
:1016200004460D46002C07DA2D20FFF7CBFF294694
:101630006042FFF7D7FF03E029462046FFF7D2FFBD
:1016400070BD000010B51BA000F06AF804211D4811
:101650000088FFF7C7FF1CA000F062F804211C48B7
:101660000088FFF7BFFF1BA000F05AF804211B48B9
:101670000088FFF7B7FF1AA000F052F801211A48BE
:101680000078FFF7AFFF19A000F04AF8194800787A
:1016900048B11949097809B118A100E01AA1084612
:1016A00000F03EF802E01BA000F03AF81BA000F0AA
:1016B00037F810BD245354415455532C4144433DF5
:1016C00000000000140000202C4D563D00000000DA
:1016D000160000202C54483D000000001800002097
:1016E0002C414C41524D3D001A0000202C4D4F44DE
:1016F000453D00001B0000201C0000204D414E55C0
:10170000414C5F4F4E0000004D414E55414C5F4FE4
:10171000464600004155544F000000000D0A0000ED
:1017200070B50446002504E0605DFFF74BFF681CC0
:10173000C5B2605D0028F7D170BD10B500F002F8A9
:1017400010BD00000CB500200190009033480068E7
:1017500040F480303149086000BF3048006800F430
:10176000003000900198401C0190009818B9019831
:10177000B0F5A06FF1D12948006800F4003010B135
:101780000120009001E0002000900098012843D142
:101790002348006840F010002149086008460068AE
:1017A00020F0030008600846006840F0020008606E
:1017B0001A48406819494860084640684860084629
:1017C000406840F4806048600846406820F47C101F
:1017D00048600846406840F4E810486008460068E1
:1017E00040F08070086000BF0C48006800F0007096
:1017F0000028F9D00948406820F0030007494860F4
:101800000846406840F00200486000BF0348406856
:1018100000F00C000828F9D10CBD000000100240B7
:101820000020024001460022087808B900207047D5
:1018300009E0885C302802DB885C392801DD002063
:10184000F5E7501CC2B2885C0028F2D10120EEE717
:101850007047000010B51348006840F001001149BE
:10186000086008464068104908400E49486008462C
:1018700000680E4908400B4908600846006820F4DB
:10188000802008600846406820F4FE0048604FF45D
:101890001F008860FFF751FF4FF0006004490860A7
:1018A00010BD0000001002400000FFF8FFFFF6FE30
:1018B00008ED00E021B1028842F00102028004E05C
:1018C00002884FF6FE731A400280704701894FF676
:1018D000F87211400181704770B500240022002386
:1018E000058C4FF6FF6635400584028C8388848B17
:1018F0004FF68F752C404FF6FC752C400D882C430D
:101900004FF6FF552A400D894FF6FF7606EA05256A
:101910002A434D8806EA05252A43154DA84202D0E0
:10192000144DA8421DD14FF2FF752A404D894FF644
:10193000FF7606EA05252A434FF6FF352A408D88B3
:1019400006EA05252A434EF6FF752B404DF6FF7536
:101950002B408D8906EA05152B43CD8906EA05152E
:101960002B4383808483CD888587028470BD0000EB
:10197000002C014000340140002101804180818021
:10198000C180018141818181C18170478187704718
:10199000002202881D4B98420ED01D4B98420BD05E
:1019A000B0F1804F08D01B4B984205D01A4B98429B
:1019B00002D01A4B984204D14FF68F731A404B88CD
:1019C0001A43174B984207D0164B984204D04FF653
:1019D000FF431A40CB881A4302808B8883850B888B
:1019E00003850A4B98420BD0094B984208D00E4B06
:1019F000984205D00D4B984202D00D4B984201D130
:101A00000B7A03860123838270470000002C01407B
:101A1000003401400004004000080040000C004079
:101A2000001000400014004000400140004401400C
:101A30000048014010B540F22551264800F07CF8DE
:101A4000012845D1234800F033F9C4B22248007878
:101A500040B9402C36D101201F49087000201F4991
:101A600008702FE01C480078012818D10D2C03D1F4
:101A700002201949087025E018480078632808DA20
:101A8000164801780078401C144A107014484454D9
:101A900018E00020104908701049087012E00E4844
:101AA000007802280ED10A2C07D100200C490B4ADD
:101AB0001278885401200B490870002006490870EC
:101AC0000649087040F22551024800F00DF800BFA9
:101AD00010BD000000380140270000202800002031
:101AE0002C0000202600002010B50022002340F624
:101AF0006A14A14200D100BF0A1201249440A3B28B
:101B0000DC43048010BD21B1828942F400528281FD
:101B100004E082894DF6FF731A40828170470246C5
:101B20000020B1F5007F00D100BF13880B400BB13E
:101B3000012000E00020704770B502460024002319
:101B40000025002040F66A16B14200D100BFC1F363
:101B5000421501F01F03012606FA03F3012D02D1FD
:101B60009689334006E0022D02D1168A334001E007
:101B7000968A33400C12012606FA04F41688344083
:101B800013B10CB1012000E0002070BDF0B5034698
:101B9000002400260025002040F66A17B94200D133
:101BA00000BF1846C1F3421401F01F06012707FACF
:101BB00006F5012C01D10C3004E0022C01D11030CB
:101BC00000E014301AB107682F43076002E007688D
:101BD000AF430760F0BD00002DE9F04786B0054631
:101BE0000E460024A24600BFA1460027B08900B1DE
:101BF00000BF2F462C8A4CF6FF700440F088044347
:101C00002C82AC894EF6F3100440B0883189084329
:101C1000718908430443AC81AC8A4FF6FF4004400D
:101C2000B0890443AC8201A8FFF7DAFB1F48874262
:101C300002D1DDF810A001E0DDF80CA0A88900F4C5
:101C4000004040B10AEBCA0000EB0A1031684900BD
:101C5000B0FBF1F807E00AEBCA0000EB0A103168AC
:101C60008900B0FBF1F86420B8FBF0F00401200912
:101C7000642101FB1089A88900F4004040B13220A2
:101C800000EBC900B0FBF1F000F00700044308E0EE
:101C9000322000EB09106421B0FBF1F000F00F00DE
:101CA00004432C8106B0BDE8F087000000380140F5
:101CB00001468888C0F308007047C1F3080282809B
:101CC000704700BFFEE70000FFF7C4F9FEF708FD0C
:101CD000FFF77EF8FEF7F2FDFFF70EFCFFF7A4F822
:101CE0000FA201210846FFF7B6FA0FA20121022038
:101CF000FFF7B1FA0DA201210320FFF7ACFA0DA006
:101D0000FFF70EFD0AE0FFF7D7FBFEF7ADFFFEF78A
:101D100063FDFEF71BFF3220FEF783FFF3E70000B1
:101D20004144303A000000004D563A00537065655A
:101D3000643A00002456455253494F4E3D312E30EF
:101D40002E300D0A0000000010B500290AD00878D6
:101D5000002807D005487844FEF796FA002801D0FD
:101D6000002010BD0248784410BD00002E0600007F
:101D70002606000000000000000000000000000037
:101D800000000000000000F8000000000000003328
:101D90003000000000100C06100C060000000000CF
:101DA0000000000040C07840C0784000043F0404B8
:101DB0003F040400007088FC08300000001820FF79
:101DC000211E0000F008F000E018000000211C03B4
:101DD0001E211E0000F00888700000001E21232430
:101DE0001927211010160E0000000000000000004E
:101DF00000000000000000E01804020000000007DE
:101E00001820400000020418E000000000402018E4
:101E100007000000404080F0804040000202010FB7
:101E200001020200000000F0000000000101011F9B
:101E300001010100000000000000000080B07000FF
:101E4000000000000000000000000000000101018F
:101E5000010101010000000000000000003030001E
:101E600000000000000000008060180400601806F8
:101E70000100000000E010080810E000000F102032
:101E800020100F00001010F8000000000020203F7C
:101E90002020000000700808088870000030282406
:101EA00022213000003008888848300000182020A7
:101EB00020110E000000C02010F8000000070424CC
:101EC000243F240000F80888880808000019212011
:101ED00020110E0000E0108888180000000F11206B
:101EE00020110E0000380808C83808000000003F24
:101EF000000000000070880808887000001C222183
:101F000021221C0000E010080810E000000031222F
:101F100022110F00000000C0C000000000000030CF
:101F20003000000000000080000000000000806021
:101F300000000000000080402010080000010204A2
:101F40000810200040404040404040000404040489
:101F50000404040000081020408000000020100845
:101F600004020100007048080808F000000000307A
:101F700036010000C030C828E810E0000718272408
:101F800023140B000000C038E0000000203C2302B6
:101F90000227382008F8888888700000203F202019
:101FA00020110E00C030080808083800071820204B
:101FB0002010080008F808080810E000203F202042
:101FC00020100F0008F88888E8081000203F202023
:101FD0002320180008F88888E8081000203F200017
:101FE00003000000C030080808380000071820204F
:101FF000221E020008F808000008F808203F21010E
:1020000001213F20000808F8080800000020203FB8
:102010002020000000000808F8080800C080808028
:102020007F00000008F888C028180800203F200121
:102030002638200008F8080000000000203F20207B
:102040002020300008F8F800F8F80800203F003F92
:10205000003F200008F830C00008F808203F2000AA
:1020600007183F00E01008080810E0000F102020BB
:1020700020100F0008F808080808F000203F210190
:1020800001010000E01008080810E0000F182424E7
:1020900038504F0008F8888888887000203F20005A
:1020A000030C302000708808080838000038202110
:1020B00021221C00180808F8080818000000203F1A
:1020C0002000000008F808000008F808001F202081
:1020D00020201F000878880000C838080000073852
:1020E0000E010000F80800F80008F800033C0700A3
:1020F000073C0300081868808068180820302C030B
:10210000032C30200838C800C83808000000203FE1
:102110002000000010080808C838080020382621D0
:1021200020201800000000FE020202000000007FD4
:1021300040404000000C30C00000000000000001E2
:102140000638C00000020202FE00000000404040CD
:102150007F000000000004020202040000000000F2
:10216000000000000000000000000000808080806F
:102170008080808000020204000000000000000057
:1021800000000000000080808080000000192422F0
:1021900022223F2008F8008080000000003F11202C
:1021A00020110E000000008080800000000E112031
:1021B00020201100000000808088F800000E11200F
:1021C00020103F200000808080800000001F22221D
:1021D00022221300008080F0888888180020203F89
:1021E000202000000000808080808000006B94949C
:1021F0009493600008F8008080800000203F210058
:1022000000203F2000809898000000000020203F20
:1022100020200000000000809898000000C080800E
:10222000807F000008F8000080808000203F2402AA
:102230002D302000000808F8000000000020203F9A
:10224000202000008080808080808000203F20004F
:102250003F20003F8080008080800000203F2100E0
:1022600000203F200000808080800000001F202090
:1022700020201F00808000808000000080FFA120BF
:1022800020110E000000008080808000000E1120D0
:1022900020A0FF80808080008080800020203F215F
:1022A0002000010000008080808080000033242412
:1022B00024241900008080E0808000000000001FBE
:1022C000202000008080000000808000001F20206F
:1022D00020103F20808080000080808000010E3030
:1022E0000806010080800080008080800F300C0391
:1022F0000C300F0000808000808080000020312E94
:102300000E312000808080000080808080818E706F
:102310001806010000808080808080000021302C21
:102320002221300000000000807C0202000000003A
:10233000003F404000000000FF00000000000000DF
:10234000FF0000000002027C800000000040403FCF
:102350000000000000060101020204040000000069
:102360000000000094240008000000202C00000061
:1023700028010008C02400082C000020C40600002A
:10238000440100081001000043000000F8FFFFFFB7
:102390000040404040404040404041414141414078
:1023A000404040404040404040404040404040402D
:1023B00040050202020202020202020202020202BC
:1023C00002202020202020202020200202020202C1
:1023D0000202909090909090101010101010101019
:1023E0001010101010101010101010100202020225
:1023F0000202888888888888080808080808080869
:102400000808080808080808080808080202020264
:10241000400000000000000000000000000000007C
:1024200000000000000000000000000000000000AC
:10243000000000000000000000000000000000009C
:10244000000000000000000000000000000000008C
:10245000000000000000000000000000000000007C
:10246000000000000000000000000000000000006C
:10247000000000000000000000000000000000005C
:10248000000000000000000000000000000000004C
:102490000000000000000000010203040102030428
:1024A0000607080902040608000000006009000091
:1024B00000640000000000000000000000000000B8
:04000005080000ED02
:00000001FF
